:020000040800F2
:10000000C80C0020712B0008A1050008A3050008FA
:10001000A7050008AB050008AF05000800000000B8
:10002000000000000000000000000000B305000810
:10003000B505000800000000B7050008B905000874
:100040008B2B00088B2B00088B2B00088B2B0008B8
:100050008B2B00088B2B00080B1C00088B2B000837
:100060008B2B00088B2B00088B2B00088B2B000898
:100070008B2B00088B2B00088B2B00088B2B000888
:100080008B2B00088B2B00088B2B00088B2B000878
:100090008B2B00088B2B00088B2B00088B2B000868
:1000A0008B2B00088B2B00088B2B00088B2B000858
:1000B0008B2B00088B2B00088B2B00088B2B000848
:1000C0008B2B00088B2B00088B2B00088B2B000838
:1000D0008B2B0008CB1D00088B2B00088B2B0008F6
:1000E0008B2B00088B2B00088B2B00088B2B000818
:1000F0008B2B00088B2B00088B2B00088B2B000808
:100100008B2B00088B2B00088B2B00088B2B0008F7
:100110008B2B00088B2B00088B2B00088B2B0008E7
:100120008B2B00088B2B00088B2B00088B2B0008D7
:1001300000F002F800F06AF80AA090E8000C82448F
:100140008344AAF10107DA4501D100F05FF8AFF26C
:10015000090EBAE80F0013F0010F18BFFB1A43F0A5
:1001600001031847406B0000606B00000A444FF029
:10017000000C10F8013B13F0070408BF10F8014B06
:100180001D1108BF10F8015B641E05D010F8016B4B
:10019000641E01F8016BF9D113F0080F1EBF10F8AF
:1001A000014BAD1C0C1B09D16D1E58BF01F801CBD2
:1001B000FAD505E014F8016B01F8016B6D1EF9D555
:1001C0009142D6D37047000000230024002500266A
:1001D000103A28BF78C1FBD8520728BF30C148BFAA
:1001E0000B607047662905F0FA87642902F02A85BA
:1001F000002070471FB503F08DF804000020002197
:1002000004F03AFEE0601FBD10B510BD03F086F9A2
:100210001146FFF7EFFF00F026F803F0A4F903B44E
:10022000FFF7F2FF03BC01F075FD000010B501F00F
:1002300001FD01F069FD4FF4E13001F07AFD00F0BD
:10024000ADFA01F0A3FC00F0EBFF00F05FFF00F05F
:10025000F3FD01F0B7FC00BF00F05DFC0028FBD10E
:100260009949086010BD08B500BF00240025A046CC
:10027000002096490860FFF7D9FF082394A20021C7
:10028000084600F0B3FE4FF47A7001F010FD00F064
:10029000D3FD71E09348025D93A1994802F096FC6A
:1002A0000823974A0121002000F0A0FE002000F062
:1002B000D1FF944908601021934801F0C8FF91498B
:1002C0000968884258D100F0B7FD4FF000080025BA
:1002D00013E008238DA20021084600F087FE0320CA
:1002E00001F029F88D4941F82500084650F82510FD
:1002F000404605F02BFC80466D1C8948006885420D
:10030000E7DB8748006805F0A1FD06463146404618
:1003100005F08AFC834941F8240051F8240005F0D7
:10032000E9FB064632460B467FA0009402F042FCF1
:1003300022467FA1724802F049FC0823704A00213E
:10034000084600F053FE774951F8240005F0D2FB2F
:10035000064632460B467BA1694802F037FC08236B
:10036000674A0121002000F041FE4FF47A7001F04D
:100370009EFC00F061FD641C6A49C869002105F01B
:1003800015FD87D079E0032000F0D5FF72490860A1
:100390000846006808600846006805F0ABFB0646A2
:1003A00000226E4B05F05AF80ED801206C49086007
:1003B00000F042FD10236BA20321282000F016FE5E
:1003C00001204249086047E040480068012806D102
:1003D00000203E4908606249086000F02DFD5E483B
:1003E000006801F00EF9624908605B48006805F09A
:1003F00081FB064632460B465EA1414802F0E6FB11
:1004000008233F4A0021084600F0F0FD002000F0DC
:1004100021FF3C49086008213B4801F018FF394999
:100420000968884218D1524855A10268344802F040
:10043000CDFB1023324A0621002000F0D7FD00201A
:1004400052490860012046490860642001F02FFCF1
:1004500000204F49C1F8A0013F48006805F04AFB61
:10046000064632460B464BA002F0A4FB00BF4021DB
:100470004A4802F023FB0028F9D084E72DE9F84F21
:1004800006460F4614461D463946304605F032FEF4
:1004900000904FF07E51204605F02CFE82465146DA
:1004A000009805F0C1FB80462946304605F022FE43
:1004B0008346414605F0B8FB824605F0ABFC814619
:1004C00009F10100BDE8F88F888122421800002060
:1004D0006C6561726E2077696C6C20626567696E0D
:1004E00000000000240000206E65787420706170A8
:1004F00065723A2025642020202020200000000082
:10050000000400201C000020001801406C6561728E
:100510006E696E672E2E2E2E2E2E00006004002097
:10052000300000204004002025662C25640D0A00C0
:100530004E6F3A20256420202020202020202020DB
:10054000200000006368333A202566202020202008
:1005500020202020200000000C000020000024406B
:10056000A08121425761726E696E67210000000010
:10057000200000204348333A2025332E3366000004
:1005800070617065723A2564202000002C00002004
:100590000080214225332E33660D0A0000380140C9
:1005A000704700BFFEE700BFFEE700BFFEE700BFE9
:1005B000FEE7704770477047704700000CB5002099
:1005C000019000906C48006840F480306A490860EF
:1005D00000BF6948006800F4003000900198401C9A
:1005E0000190009818B90198B0F5A06FF1D1624858
:1005F000006800F4003010B10120009001E00020FC
:1006000000900098012843D15C48006840F0100039
:100610005A4908600846006820F003000860084650
:10062000006840F002000860534840685249486042
:100630000846406848600846406840F4806048606A
:100640000846406820F47C1048600846406840F442
:10065000E81048600846006840F08070086000BFFD
:100660004548006800F000700028F9D04248406812
:1006700020F00300404948600846406840F002000E
:10068000486000BF3C48406800F00C000828F9D1E1
:100690000CBD10B5FFF792FF10BD10B536480068CD
:1006A00040F0010034490860084640683449084079
:1006B0003149486008460068324908402E490860C0
:1006C0000846006820F4802008600846406820F44E
:1006D000FE0048604FF41F008860FFF7DAFF4FF01C
:1006E00000602949086010BD10B5002100200022DB
:1006F000214B5B6803F00C0121B1042906D00829C5
:1007000028D107E0214B224C236027E01F4B204CCF
:10071000236023E0184B5B6803F47010164B5B6892
:1007200003F48032022303EB904022B9194B434378
:10073000174C23600DE0104B5B6803F4003323B1CA
:10074000144B4343124C236003E0104B4343104CC3
:10075000236003E00D4B0E4C236000BF00BF064B2F
:100760005B68C3F303130C4CE15C094B1B68CB4083
:10077000074C236010BD0000001002400020024022
:100780000000FFF8FFFFF6FE08ED00E000127A001F
:100790003400002000093D003800002008B5012188
:1007A000202001F07DFF0420ADF8000010208DF81E
:1007B000030003208DF802006946044801F0B4FCF0
:1007C0000421024801F05DFD08BD00000014014055
:1007D00010B5022001F047FA10BD704708B501219D
:1007E000102001F05DFF3020ADF8000010208DF8E2
:1007F000030003208DF802006946FE4801F094FCD6
:100800003021FC4801F03DFD08BD10B5F9480068F5
:1008100020F47000F74908600846006840F4401072
:1008200008600120F4490860F449C1F89001FFF71D
:10083000CFFF0020F0490860FFF7CAFF0020EF4912
:10084000C1F8900110BD10B5EA48006820F47000AE
:10085000E84908600846006840F44010086000203D
:10086000E549091F0860E549C1F89401FFF7B0FFA9
:100870000120E149091F0860E049C1F89401FFF730
:10088000A7FF10BD10B50024DA48006820F47000FE
:10089000D84908600846006840F40000086001205C
:1008A000D5490860FFF794FF0120D449C1F89001B1
:1008B000FFF78EFF07E0601CC4B2FA2C03DDFFF7E0
:1008C000C2FF012010BDCC48803800680028F2D15A
:1008D000C949091F086000BFF4E710B50020C649E8
:1008E000091F0860C549C1F89401FFF771FF012095
:1008F000C149091F0860FFF76BFF0020BF49C1F81D
:100900009001FFF765FF0120BB49086010BD10B5DD
:100910000020B949091F0860B648006820F470003B
:10092000B44908600846006840F44010086001209F
:10093000B249C1F89401FFF74BFF0120AE49091FEE
:100940000860FFF745FF0020AC49C1F8900110BDD9
:1009500070B50446A748006820F47000A5490860F7
:100960000846006840F4401008600020A249091FB2
:100970000860002512E0E0099F4908606006040E47
:1009800001209E49C1F89001FFF722FF00209A49FB
:10099000091F0860FFF71CFF681CC5B2082DEADBC1
:1009A00070BD70B5054600249248006820F47000C0
:1009B000904908600846006840F40000086000267E
:1009C00015E000208C49091F0860FFF701FF012096
:1009D0008A49C1F890016006040E87488038006893
:1009E00008B1601CC4B2FFF7F3FE701CC6B2082E3B
:1009F000E7DB15B9FFF78BFF01E0FFF76EFF20463D
:100A000070BD70B506460C461546FFF7FEFE542035
:100A1000FFF79EFFFFF736FF18B1FFF714FF012025
:100A200070BD3046FFF794FFFFF72CFF2046FFF71D
:100A30008FFFFFF727FF18B1FFF705FF0120EFE752
:100A40002846FFF785FFFFF71DFF18B1FFF7FBFEF4
:100A50000120E5E7FFF7F7FE0020E1E770B5054666
:100A6000FFF7D3FE5420FFF773FFFFF70BFF284675
:100A7000FFF76EFFFFF706FFFFF7C7FE5520FFF7F2
:100A800067FFFFF7FFFE0120FFF78BFF0402002046
:100A9000FFF787FF0443FFF7D6FE204670BD70B511
:100AA000054635B1012D0FD0022D18D0032D2CD1C4
:100AB00020E00020FFF7D2FFC0F30B040120FFF776
:100AC000CDFF40EA044421E00220FFF7C7FFC0F356
:100AD0000B040320FFF7C2FF40EA044416E00420A1
:100AE000FFF7BCFFC0F30B040520FFF7B7FF40EA98
:100AF00004440BE00620FFF7B1FFC0F30B0407200E
:100B0000FFF7ACFF40EA044400E000BF00BF24F060
:100B10007044204670BD70B5FFF75FFEFFF75EFEC4
:100B20007E20FFF79BFF04467F20FFF797FF0546D7
:100B300045F24940844266D1FB2234210820FFF768
:100B400060FFFB2234210920FFF75BFFFB223421E9
:100B50000A20FFF756FFFB2234210B20FFF751FF3D
:100B60001B2200211020FFF74CFF1B220021112027
:100B7000FFF747FF1B2200211220FFF742FF1B2235
:100B800000211320FFF73DFF022220211420FFF750
:100B900038FF022220211520FFF733FF02222021F7
:100BA0001620FFF72EFF022220211720FFF729FF32
:100BB000002278211E20FFF724FF002278211F2029
:100BC000FFF71FFF002278212020FFF71AFF0022E5
:100BD00078212120FFF715FF002211461920FFF789
:100BE00010FF0D22C2211B20FFF70BFF0122142151
:100BF0001A2005E000100140940122420000224228
:100C0000FFF7FFFE01E0012070BD0020FCE72DE9A9
:100C1000F04781464846FFF742FF0B490860084607
:100C2000006804F007FC07463A460B4607480849A7
:100C300004F026FA054604F035F90446214620461C
:100C400005F050F9BDE8F08748000020DBF97E6A26
:100C5000B8A8AB4110B54021F94801F012FB802142
:100C6000F74801F00EFB8021F54801F00CFB402114
:100C7000F34801F008FB10BD10B54021F04801F029
:100C800000FB8021EE4801F0FEFA8021EC4801F0E3
:100C9000F8FA10BD10B54021E94801F0F2FA402100
:100CA000E74801F0F0FA10BD2DE9F04105462C4669
:100CB0004021E34801F0E7FA002619E0274607F053
:100CC0008007802F04D18021DD4801F0DAFA03E0AB
:100CD0008021DB4801F0D7FA6006040E4021D84895
:100CE00001F0CFFA4021D64801F0CDFA701CC6B20F
:100CF000082EE3DBBDE8F08110B50446FFF7AAFF3C
:100D00007820FFF7D1FFFFF7C5FF0020FFF7CCFFEA
:100D1000FFF7C0FF2046FFF7C7FFFFF7BBFFFFF756
:100D2000ABFF10BD10B50446FFF794FF7820FFF726
:100D3000BBFFFFF7AFFF4020FFF7B6FFFFF7AAFFAB
:100D40002046FFF7B1FFFFF7A5FFFFF795FF10BDA6
:100D500070B504460D461DB1E0B2FFF7E3FF02E0B7
:100D6000E0B2FFF7C9FF70BD70B50646002418E079
:100D700004F1B0000021FFF7EBFF00210846FFF768
:100D8000E7FF00211020FFF7E3FF002505E0012128
:100D90003046FFF7DDFF681CC5B2802DF7DB601C15
:100DA000C4B2082CE4DB70BD06E041F6650100E04A
:100DB000491E0029FCD1401E0028F6D1704701468B
:100DC00005E0002001E0421CD0B27B28FBDB0A00DA
:100DD000A1F10101F5D1704770B504460D4605F14A
:100DE000B0000021FFF7B4FF102141EA14100021E8
:100DF000FFF7AEFF04F00F000021FFF7A9FF70BD61
:100E000010B500218D20FFF7A3FF00211420FFF76C
:100E10009FFF0021AF20FFF79BFF10BD10B5002101
:100E20008D20FFF795FF00211020FFF791FF002193
:100E3000AE20FFF78DFF10BD70B5002418E004F15F
:100E4000B0000021FFF784FF00210846FFF780FF74
:100E500000211020FFF77CFF002505E00121002084
:100E6000FFF776FF681CC5B2802DF7DB601CC4B2AB
:100E7000082CE4DB70BD70B5002418E004F1B0006C
:100E80000021FFF765FF00210846FFF761FF002101
:100E90001020FFF75DFF002505E001210846FFF760
:100EA00057FF681CC5B2802DF7DB601CC4B2082C4C
:100EB000E4DB70BD2DE9F04707460E4690469946A3
:100EC00000250024A8F12000C5B27F2F02DD0027F5
:100ED000B01CC6B2B9F1100F24D131463846FFF725
:100EE0007BFF002408E004EB0511564A505C012109
:100EF000FFF72EFF601CC4B2082CF4DB701CC1B2DB
:100F00003846FFF769FF002409E004EB05110831BA
:100F10004C4A505C0121FFF71BFF601CC4B2082C37
:100F2000F3DB12E031463846FFF756FF00240AE0B3
:100F300005EB4501444A02EB4101085D0121FFF741
:100F400007FF601CC4B2062CF2DBBDE8F08710B5C9
:100F50000246012000E050430B00A1F10104E1B280
:100F6000F9D110BD2DE9FF5F074691461E460E9D43
:100F70004FF0000A002435E0301B401EC1B20A20A9
:100F8000FFF7E5FFB9FBF0F00A21B0FBF1F201FB3E
:100F90001208BAF1000F14D1701EA04211DDB8F191
:100FA000000F0CD1AB4605EBDB71491001FB04715E
:100FB000C8B22B4620220199FFF77CFF10E04FF0CA
:100FC000010AAB4605EBDB71491001FB0471C8B2A5
:100FD00008F13001CAB22B460199FFF76BFF00BF41
:100FE000601CC4B2B442C7DBBDE8FF9F2DE9F041ED
:100FF00004460F461546984600260FE0AA5D434674
:1010000039462046FFF756FF04F10800C4B2782C99
:1010100002DD0024B81CC7B2701CC6B2A85D00284F
:10102000ECD1BDE8F0812DE9F04180460E46154631
:10103000002731464046FFF7CFFE002411E00000B4
:10104000000C0140FA640008D2620008724A02EB08
:101050008511085D0121FFF77BFE781CC7B2601C7B
:10106000C4B2102CF2DB701CC1B24046FFF7B4FED4
:1010700000240CE06900491C674A02EB4111085D3D
:101080000121FFF765FE781CC7B2601CC4B2102CAA
:10109000F0DBBDE8F0812DE9F05F06460F46904693
:1010A0001C46DDF828A04FF0000BE11704EB51714E
:1010B000C910A4EBC10131B92046E11704EB51710D
:1010C000C1F3C70506E02046E11704EB5171C910D2
:1010D000491CCDB23D4615E029463046FFF77CFE5F
:1010E000B1460BE059460BF1010B1AF80100012142
:1010F000FFF72EFE09F1010000F0FF09C145F1DB09
:10110000681CC5B2A542E7DBBDE8F09F08B5012128
:10111000082001F0C5FAC020ADF8000010208DF8BD
:10112000030003208DF8020069463C4800F0FCFFF4
:10113000C0213A4801F0A5F8C82000F0B8FD002110
:10114000AE20FFF705FE00210846FFF701FE002153
:101150001020FFF7FDFD00214020FFF7F9FD0021E1
:10116000B020FFF7F5FD00218120FFF7F1FD002100
:10117000FF20FFF7EDFD0021A120FFF7E9FD002191
:10118000A620FFF7E5FD0021A820FFF7E1FD0021E3
:101190003F20FFF7DDFD0021C820FFF7D9FD00212A
:1011A000D320FFF7D5FD00210846FFF7D1FD002130
:1011B000D520FFF7CDFD00218020FFF7C9FD0021DC
:1011C000D820FFF7C5FD00210520FFF7C1FD002154
:1011D000D920FFF7BDFD0021F120FFF7B9FD002167
:1011E000DA20FFF7B5FD00211220FFF7B1FD002145
:1011F000DB20FFF7ADFD00213020FFF7A9FD002126
:101200008D20FFF7A5FD00211420FFF7A1FD00218F
:10121000AF20FFF79DFD08BD4C000020000C0140F1
:1012200008B50121442001F03BFA1820ADF8000078
:1012300048208DF8030069462C4800F075FF012016
:10124000ADF8000028208DF803006946284800F01A
:101250006BFF08BD10B5044614B101202549087084
:101260002448007858B31021204800F0F0FF50B116
:1012700008211E4800F0EBFF28B101211C4800F0B6
:10128000E6FF01281BD10A2000F011FD00201949BA
:1012900008701021154800F0DAFF08B9012010BDD0
:1012A0000821124800F0D3FF08B90220F7E7012116
:1012B0000F4800F0CCFF012815D10320EFE71021E3
:1012C0000A4800F0C4FF01280DD10821074800F0AA
:1012D000BEFF012807D10121054800F0B8FF10B971
:1012E0000120044908700020D9E7000000180140DF
:1012F00000080140CC0300202DE9F04105460C46D2
:10130000002600270BE0E8B2FFF781FC804631465B
:1013100004F01CFC0646052000F0C9FC7F1CA74217
:10132000F1DB204604F092FD80464146304604F051
:101330007BFCBDE8F0812DE9F041E4B006464FF0BA
:101340000008002408E0F0B2FFF761FC4DF824002B
:10135000012000F0ACFC641C642CF4DB002519E0D7
:10136000002412E0621C5DF822105DF8240004F0F5
:1013700085FE09D25DF82470601C5DF820004DF8F0
:101380002400601C4DF82070641CC5F16300A0426D
:10139000E8DC6D1C632DE3DB012406E05DF824101E
:1013A000404604F0D3FB8046641C632CF6DBF7490F
:1013B000404604F039FC64B0BDE8F08170B50546E4
:1013C0000026E8B2FFF723FCF149086300240DE092
:1013D000EF49601C51F8200041F82400084650F8FD
:1013E0002410304604F0B2FB0646641C0C2CEFDBE4
:1013F000E849304604F018FC70BD2DE9F047074677
:101400004FF00008E44DF8B2FFF701FC064629460C
:10141000304604F06FFE81464FF07E5104F02EFE00
:1014200009D33146284604F065FE81464FF07E51CF
:1014300004F024FE01D22C4600E034462146284622
:1014400004F0B4FC08D008F10108B8F1050F05DD7F
:101450004FF00008254601E04FF000082846BDE89F
:10146000F0872DE9F04104460D46E8B2FFF7CFFBC7
:1014700007462169206804F069FB60606169606863
:1014800004F064FB06463146606804F0CDFBE06082
:101490003846A16804F02EFE8046E16804F022FD83
:1014A0000646A16804F052FBA0604FF07E50E16850
:1014B00004F020FE0646616804F014FD2060A06878
:1014C000BDE8F0812DE9F14F82B0029804F012FBE3
:1014D0000646B24AB24B04F031F98046B14AB24BEB
:1014E00003F0CEFD044602F0D3FC029804F002FBA8
:1014F0008046AA4AAA4B04F021F90646A94AAA4BFB
:1015000003F0BEFD044602F0C3FC029804F0F2FAB8
:101510000646A24AA24B04F011F90446A14AA24B86
:1015200003F0AEFDCDE90001DDE9000102F0B0FC01
:1015300082468B465046594603F036FFBDE8FE8F83
:101540002DE9FE4F4FF0804400BF254629469748BD
:1015500004F0C8FC294602904FF0814004F0C2FC20
:101560008346294604F0BEFC824629464FF080405F
:1015700004F0B8FC2946009004F0B4FC83462946E8
:1015800004F0B0FC5146019004F0B4FD804602998D
:1015900004F0DCFA0746864904F0ACFD064629460D
:1015A0004FF0824004F09EFC82462946804804F0B9
:1015B00099FC8346294604F095FC8046514604F088
:1015C00099FD0746794904F0C1FA814649463046FB
:1015D00004F02AFB0746294604F081FD044629460B
:1015E000204604F087FD824604F084FA21F0004191
:1015F0000746704A704B04F06BF8A6D90020BDE88E
:10160000FE8F2DE9F04F93B0824600266B4FDFF836
:10161000B081DFF8B09100216B48CDE910106B4923
:101620006B48CDE90E104FF080516A48CDE90C109F
:1016300069496A48CDE90A1069496A48CDE9081044
:1016400069496A48CDE90610C8F10000684902F00E
:1016500061FD504604F04EFACDE9020102F05AFD58
:1016600000BF6448644902F055FD504604F042FA58
:10167000CDE9020102F04EFD00BF6048604902F072
:1016800049FD504604F036FACDE9020102F042FD70
:1016900000BF002005905B4A9168506804F02AFD65
:1016A0004FF08041039004F0BFFA04905548416820
:1016B000049804F014FD8346514604F0DFFB64D225
:1016C000504908684FF07E5104F040FA8346514675
:1016D00004F0D4FC59D200224B4B3046394603F07B
:1016E000CFFC02460B46CDE9020148A1494801F072
:1016F0006DFA0823474A01210020FFF777FC424694
:101700004B4645A1434801F061FA0823414A0221B2
:101710000020FFF76BFC504604F0ECF942464B46C4
:10172000CDE9000103F080FB32463B46CDE90201E2
:1017300003F0D0FE04460D460022394B20462946D0
:1017400003F0E2FBCDE9020103F02EFE83462046C2
:10175000294603F029FE834505DD2046294603F08E
:1017600023FE401C03E02046294603F01DFE0590A1
:1017700022462B462BA1274801F028FA0823254AA8
:1017800004210020FFF732FCCBE14FE00000C4420F
:1017900068050020000040410000164314AE47E1F8
:1017A0007A946B405C8FC2F5285C48400000404052
:1017B0000000C040F168E388B5F8E43E801FFA40BD
:1017C000448B6CE7FBA9FFBF5D107A4148E17A14B6
:1017D000AE4709C0CBD2F0411904560E2D3211C0CC
:1017E000000040F6AC5453421F85EB51B81E15C0A3
:1017F00004FE5240EE7C3F355E52524054E3A59BBE
:10180000C4D0514040040020006AF84061313A25BC
:101810002E3366002805002062313A252E336600FB
:101820000000E03F66783A252E336600C54A11690C
:10183000D06804F05FFC4FF08041039004F0F4F9AD
:101840000490C048C168049804F049FC834651469E
:1018500004F014FB70D2BB4A9168506804F04AFC53
:101860004FF08041039004F0DFF90490B54881689F
:10187000049804F06BF98346514604F0FFFB5BD2F9
:101880000022B14BDDE9100103F0FAFB02460B46E2
:10189000CDE90201ADA1AF4801F098F90823AD4AA6
:1018A00001210020FFF7A2FBABA1AA48DDE90E232E
:1018B00001F08CF90823A74A02210020FFF796FBCC
:1018C000504604F017F9CDE90001DDE90E2303F0DD
:1018D000ABFACDE90201DDE9102303F0FBFD04467C
:1018E0000D4622462B46AFF2C4019A4801F06EF92C
:1018F0000823984A04210020FFF778FB0022984B28
:101900002046294603F000FBCDE9020103F04CFD1F
:1019100083462046294603F047FD834505DD2046E2
:10192000294603F041FD401C03E02046294603F010
:101930003BFD0590F5E0FFE7824A9169506904F0AC
:10194000D9FB4FF08041039004F06EF904907D487C
:101950004169049804F0C3FB8346514604F08EFAB3
:1019600070D2784A1169D06804F0C4FB4FF080410E
:10197000039004F059F9049072480169049804F046
:10198000E5F88346514604F079FB5BD20022754BA3
:10199000DDE90C0103F074FB02460B46CDE90201C0
:1019A00071A16C4801F012F908236A4A0121002054
:1019B000FFF71CFB6EA16748DDE90A2301F006F979
:1019C0000823644A02210020FFF710FB504604F070
:1019D00091F8CDE90001DDE90A2303F025FACDE90C
:1019E0000201DDE90C2303F075FD04460D46224695
:1019F0002B46AFF2D011574801F0E8F80823554ABA
:101A000004210020FFF7F2FA0022554B2046294618
:101A100003F07AFACDE9020103F0C6FC83462046C2
:101A2000294603F0C1FC834505DD2046294603F025
:101A3000BBFC401C03E02046294603F0B5FC0590A2
:101A40006FE0FFE73F4A9169506904F053FB4FF0A4
:101A50008041039004F0E8F804903A4881690498C2
:101A600004F074F88346514604F008FB59D2002272
:101A70003C4BDDE9080103F003FB02460B46CDE9D0
:101A800002013DA1334801F0A1F80823314A0121A8
:101A90000020FFF7ABFA3AA12E48DDE9062301F05A
:101AA00095F808232B4A02210020FFF79FFA5046A1
:101AB00004F020F8CDE90001DDE9062303F0B4F9D4
:101AC000CDE90201DDE9082303F004FD04460D46DB
:101AD00022462B46AFF2B4211E4801F077F80823C6
:101AE0001C4A04210020FFF781FA00221C4B2046EB
:101AF000294603F009FACDE9020103F055FC8346BB
:101B00002046294603F050FC834505DD2046294642
:101B100003F04AFC401C03E02046294603F044FC45
:101B20000590504603F0E6FF0022174BCDE9020175
:101B300003F0CEFD01D201200590059813B0BDE859
:101B4000F08F000040040020D012634161323A253A
:101B50002E3366002805002062323A252E336600B7
:101B60000000E03F65CDCD4161333A252E3366005C
:101B700062333A252E33660061343A252E336600EF
:101B800062343A252E33660000C0724008B5012148
:101B9000082000F085FD4FF48070ADF800001020A3
:101BA0008DF8030003208DF802006946044800F018
:101BB000BBFA4FF48071024800F065FB08BD0000DD
:101BC000000C01400EB5FFF72BFB0121084600F089
:101BD00067FD0021084600F0BDFB012001900820B0
:101BE0008DF8090001A800F0BFF906208DF800006B
:101BF00002208DF8010000208DF8020001208DF8F0
:101C00000300684600F039F90EBD10B50A2000F057
:101C10004EF80121054800F01AFB012801D10449C2
:101C20000860012000F017FA10BD00000008014014
:101C30002C00002010B56FF0040000F068F92E4869
:101C400000682E49B0FBF1F02D4908700846007875
:101C500000EB4001C1EBC0104FF6FF7101EAC0007C
:101C60002849088010BD0146254A12784A434FF0A2
:101C7000E0235A6100229A611A46126942F0010279
:101C80001A6100BF4FF0E022106900F001021AB1A2
:101C900000F48032002AF5D04FF0E022126922F0E1
:101CA00001024FF0E0231A6100229A617047014659
:101CB000144A12884A434FF0E0235A6100229A6185
:101CC0001A46126942F001021A6100BF4FF0E02289
:101CD000106900F001021AB100F48032002AF5D038
:101CE0004FF0E022126922F001024FF0E0231A6166
:101CF00000229A61704700003400002000127A0030
:101D0000CE030020D003002010B54FF4A06000F0F7
:101D1000AFF810BD014600BF704700BF504A12889F
:101D200002F04002002AF9D0C2B24D4B1B1D1A80AE
:101D3000704710B586B00446012144F2040000F05B
:101D4000AFFC4FF40070ADF8140003208DF81600BE
:101D500018208DF8170005A9424800F0E5F94FF466
:101D60008060ADF8140004208DF8170005A93D48E7
:101D700000F0DAF925208DF8000003208DF801002D
:101D80008DF8020001208DF80300684600F075F818
:101D900001940020ADF80800ADF80A00ADF80C0081
:101DA000ADF810000C20ADF80E0001A92C4800F091
:101DB0001EFD012240F22551294800F0B0FD01210D
:101DC000274800F0A0FD06B010BD10B540F2255127
:101DD000234800F089FE10B3214800F005FEC4B28C
:101DE0002148008800F40040C8B91F48008800F46A
:101DF000804060B10A2C03D000201B49088020E0FD
:101E00001948008840F400401749088019E00D2C5B
:101E100006D11548008840F480401349088010E03E
:101E200011480088C0F30D0010490C540E4800887A
:101E3000401C0D49088008460088C72801DD0020A5
:101E4000088010BD10B504462146054800F0C8FDC5
:101E500000BF0348008800F040000028F9D010BD02
:101E60000038014000080140D80300209C050020F4
:101E700031490143314A1160704770B50021002398
:101E80000F22C47804B32D4C246804F4E064C4F534
:101E9000E064210AC1F10403CA40447804FA03F162
:101EA0008478144021430901254C0678A155047813
:101EB00004F01F050124AC4005786D11AD0005F15B
:101EC000E025C5F8004109E0047804F01F0501246D
:101ED000AC401C4D0678761145F8264070BD1A4A74
:101EE0000A400243154B1B1F1A60704739B1134A51
:101EF000121D12680243114B1B1D1A6006E00F4AA7
:101F0000121D126882430D4B1B1D1A607047042876
:101F100008D14FF0E021096941F004014FF0E022BF
:101F2000116107E04FF0E021096921F004014FF051
:101F3000E0221161704700000000FA050CED00E09E
:101F400000E400E080E100E080FFFF1F0020444942
:101F50000860091D0860091D0860091D08604148E6
:101F60003F4914310860704700213D498279002AB9
:101F70003AD00A46126803689A430B461A600A1D53
:101F8000126803689A430B1D1A60027911440A68AB
:101F900003681A430A60324A0832126803689A4397
:101FA0002F4B08331A601A1D126803689A432C4B92
:101FB0000C331A604279102A0ED11A1F1268036876
:101FC0001A43274B08331A601A1D126803681A4314
:101FD000234B0C331A600DE02149427911440A6801
:101FE00003681A430A6005E0027911440A6803682D
:101FF0009A430A6070470021016001710C21417110
:102000000021817170471649103109680143144A53
:1020100010321160704701460020114A14321268D4
:102020000A400AB1012000E0002070470C49143139
:1020300008607047014600200022094B1B6803EA34
:102040000102074B14331B680B4013B10AB1012086
:1020500000E000207047024914310860704700001A
:1020600000040140FFFF0F0010B50446CC48844235
:1020700008D10121042000F02DFB0021042000F0F4
:1020800029FB46E0C748844208D10121082000F01E
:1020900021FB0021082000F01DFB3AE0C2488442E9
:1020A00008D10121102000F015FB0021102000F0C4
:1020B00011FB2EE0BD48844208D10121202000F010
:1020C00009FB0021202000F005FB22E0B8488442F3
:1020D00008D10121402000F0FDFA0021402000F04D
:1020E000F9FA16E0B348844208D10121802000F0BB
:1020F000F1FA0021802000F0EDFA0AE0AE488442B7
:1021000007D10121801500F0E5FA0021A01500F0AB
:10211000E1FA10BD10B50121084600F0DBFA0021FC
:10212000012000F0D7FA10BD2DE9F041024600254C
:102130000026002000230024002791F803C00CF0A3
:102140000F0591F803C00CF0100CBCF1000F03D088
:1021500091F802C04CEA050591F800C0BCF1000FEF
:1021600031D0146800202BE04FF0010C0CFA00F382
:10217000B1F800C00CEA03069E4220D183004FF064
:102180000F0C0CFA03F7BC4305FA03FC4CEA0404F9
:1021900091F803C0BCF1280F06D14FF0010C0CFAE6
:1021A00000FCC2F814C00AE091F803C0BCF1480F6B
:1021B00005D14FF0010C0CFA00FCC2F810C0401C15
:1021C0000828D1D31460B1F800C0BCF1FF0F34DD92
:1021D000546800202EE000F1080C4FF0010808FAC6
:1021E0000CF3B1F800C00CEA03069E4221D1830033
:1021F0004FF00F0C0CFA03F7BC4305FA03FC4CEA52
:10220000040491F803C0BCF1280F05D100F1080CBB
:1022100008FA0CF8C2F8148091F803C0BCF1480F1A
:1022200007D100F1080C4FF0010808FA0CF8C2F8C9
:102230001080401C0828CED35460BDE8F0814FF6D2
:10224000FF710180022181700421C1707047024634
:10225000002093680B400BB1012000E00020704784
:102260000146886880B2704702460020D3680B4060
:102270000BB1012000E0002070470146C86880B221
:10228000704701617047416170470AB1016100E028
:1022900041617047C16070474FF480320A438261E8
:1022A0008161826182698269704702460020434BE6
:1022B00018684FF68073184040EA021008433F4BFD
:1022C000186070473E49C8617047F0B50A46002360
:1022D00000240021002500F00046B6F1004F02D195
:1022E000364EF16901E0354E7168C0F3034583B2A3
:1022F00000F44016B6F5401F08D121F070612F4E52
:10230000766826F070662D4F7E6012E000F480162D
:10231000B6F5801F06D1032606FA05F4A14341F065
:10232000706106E0460D360103FA06F6B14341F04E
:10233000706122B1460D360103FA06F6314300F012
:102340000046B6F1004F02D11C4EF16101E01B4E78
:102350007160F0BD30B500228B071C0F0F2303FA0C
:1023600004F2164B08338C1053F824309343134C6B
:1023700008348D1044F8253023468C1053F824304F
:102380008C07240F00FA04F423430C4C08348D10FE
:1023900044F8253030BD0A49DC3108607047000040
:1023A00000080140000C01400010014000140140F1
:1023B00000180140001C01400020014000000140C5
:1023C00000002042DF48006840F00100DD4908605D
:1023D00008464068DC490840DA4948600846006819
:1023E000DA490840D74908600846006820F4802090
:1023F00008600846406820F4FE0048604FF41F0063
:1024000088607047CF49096821F48031CD4A116056
:102410001146096821F480211160B0F5803F03D096
:10242000B0F5802F0ED106E0C649096841F480312D
:10243000C44A116007E0C349096841F4A021C14AB8
:10244000116000E000BF00BF704710B501460022D8
:10245000002300204A11012A02D1BA4C236806E069
:10246000022A02D1B74C236A01E0B64C636A01F03C
:102470001F02012494401C400CB1012000E0002008
:1024800010BD38B5002000900024002500BF312089
:10249000FFF7DBFF05460098401C00900098B0F560
:1024A000A06F01D0002DF2D03120FFF7CEFF08B190
:1024B000012400E00024204638BD01460020A14A46
:1024C000106820F0F80040EAC10010607047A04991
:1024D00008607047024600209A4B586820F47C1030
:1024E00042EA01031843974B5860704798490866C1
:1024F000704701460020934A506820F003000843CB
:10250000506070478F48406800F00C0070470146EB
:1025100000208C4A506820F0F0000843506070475B
:1025200001460020874A506820F4E060084350606C
:10253000704701460020834A506820F4605040EA0A
:10254000C1005060704729B17E4A527A02437D4BE8
:102550005A7204E07B4A527A82437A4B5A7270472D
:102560007B49D8310860704701460020754A5068A1
:1025700020F440400843506070470021714A2032E7
:102580001170704A82F82010012802D004280AD164
:1025900004E001216B4A2032117005E00521694AEF
:1025A0002032117000E000BF00BF70476949086029
:1025B00070476449096A0143624A1162704765497C
:1025C00044390860704730B5002100220024002300
:1025D0005C4D6D6805F00C0121B1042905D0082976
:1025E00023D105E05C4D056022E05B4D05601FE0F6
:1025F000544D6D6805F47012524D6D6805F48034C9
:10260000022505EB92421CB9544D554305600BE081
:102610004C4D6D6805F400351DB1504D55430560B6
:1026200002E04D4D5543056002E04B4D056000BF93
:1026300000BF444D6D6805F0F0010909484D6B5C21
:102640000568DD4045603F4D6D6805F4E061090AAD
:10265000434D6B5C4568DD4085603A4D6D6805F41F
:102660006051C90A3E4D6B5C4568DD40C560354D23
:102670006D6805F44041890B3A4D6B5CC568B5FB4C
:10268000F3F5056130BD29B12E4A526902432D4B45
:102690005A6104E02B4A526982432A4B5A617047BF
:1026A00029B1284A92690243264B9A6104E0254ADF
:1026B00092698243234B9A61704729B1214AD269BA
:1026C0000243204BDA6104E01E4AD26982431D4B6B
:1026D000DA61704729B11B4AD2680243194BDA60AC
:1026E00004E0184AD2688243164BDA60704729B179
:1026F000144A12690243134B1A6104E0114A126929
:102700008243104B1A617047124940390860704784
:102710000F49C86470470B49C87170470948406A3F
:1027200040F0807007494862704701460020054A22
:1027300092680A400AB1012000E000207047014978
:1027400088727047001002400000FFF8FFFFF6FE9D
:10275000000042428004424200127A0000093D001B
:10276000DA030020EA03002010B50446FB48844247
:1027700009D101218803FFF7ADFF00214FF480400C
:10278000FFF7A8FF32E0F648844209D1012148044E
:10279000FFF7ADFF00214FF40030FFF7A8FF25E061
:1027A000F048844209D101218804FFF7A0FF0021ED
:1027B0004FF48020FFF79BFF18E0EB48844209D1DB
:1027C0000121C804FFF793FF00214FF40020FFF719
:1027D0008EFF0BE0E548844208D101210805FFF790
:1027E00086FF00214FF48010FFF781FF10BD2DE917
:1027F000F04786B005460E460024A24600BFA1461B
:102800000027B08900B100BF2F462C8A4CF6FF701C
:102810000440F08804432C82AC894EF6F310044047
:10282000B08831890843718908430443AC81AC8A7C
:102830004FF6FF400440B0890443AC8201A8FFF783
:10284000C2FEC648874202D1DDF810A001E0DDF8E3
:102850000CA0A88900F4004040B10AEBCA0000EBCC
:102860000A1031684900B0FBF1F807E00AEBCA0032
:1028700000EB0A1031688900B0FBF1F86420B8FB66
:10288000F0F004012009642101FB1089A88900F4FB
:10289000004040B1322000EBC900B0FBF1F000F085
:1028A0000700044308E0322000EB09106421B0FB6C
:1028B000F1F000F00F0004432C8106B0BDE8F08772
:1028C0004FF41651016000218180C18001810C21EB
:1028D000418100218181704710B502460020108A95
:1028E0004FF2FF0318400B884C8823438C88234306
:1028F000CC8823431843108210BD00210180418001
:102900008180C180704721B1828942F40052828166
:1029100004E082894DF6FF731A4082817047F0B55A
:102920000346002400260025002040F66A17B9421D
:1029300000D100BF1846C1F3421401F01F06012761
:1029400007FA06F5012C01D10C3004E0022C01D16C
:10295000103000E014301AB107682F43076002E01E
:102960000768AF430760F0BD1AB1838A0B438382C7
:1029700002E0838A8B4383827047028A4FF6F073AA
:102980001A400282028A0A430282704782894FF209
:10299000FF731A40828182890A438281704721B184
:1029A000828942F00202828104E082894FF6FD733F
:1029B0001A4082817047028A4FF6DF731A40028202
:1029C000028A0A430282704721B1028A42F480429D
:1029D000028204E0028A4BF6FF731A4002827047BB
:1029E000C1F308028280704701468888C0F308005E
:1029F0007047818941F0010181817047028BD2B219
:102A00000283028B42EA012202837047028B02F4A6
:102A10007F420283028B0A430283704721B1828A7C
:102A200042F02002828204E0828A4FF6DF731A406D
:102A30008282704721B1828A42F01002828204E0D1
:102A4000828A4FF6EF731A408282704721B1828AE0
:102A500042F00802828204E0828A4FF6F7731A403D
:102A60008282704721B1828942F40042828103E070
:102A70008289C2F30E028281704721B1828A42F4B8
:102A80000062828204E0828A4FF2FF731A408282DF
:102A90007047828A4FF6FB731A408282828A0A4309
:102AA0008282704721B1828A42F00202828204E06F
:102AB000828A4FF6FD731A408282704702460020D8
:102AC000B1F5007F00D100BF13880B400BB101208E
:102AD00000E00020704701F40072B2F5007F00D1E1
:102AE00000BFCA430280704770B50246002400232D
:102AF0000025002040F66A16B14200D100BFC1F3A4
:102B0000421501F01F03012606FA03F3012D02D13D
:102B10009689334006E0022D02D1168A334001E047
:102B2000968A33400C12012606FA04F416883440C3
:102B300013B10CB1012000E0002070BD10B50022DF
:102B4000002340F66A14A14200D100BF0A120124FA
:102B50009440A3B2DC43048010BD00000038014063
:102B60000044004000480040004C0040005000403D
:102B70000948804709480047FEE7FEE7FEE7FEE711
:102B8000FEE7FEE7FEE7FEE7FEE7FEE7044805494D
:102B9000054A064B704700009B06000831010008FB
:102BA000C8060020C80C0020C8080020C808002063
:102BB000704700000FB4044910B503AA029800F052
:102BC00097FB10BC5DF814FBD40300200FB41CB5B8
:102BD000074B06AA7B4469460090059800F06FFBFE
:102BE0000020694600F07EFB1CBC5DF814FB000071
:102BF0000D07000070B5044685690068C10601D55F
:102C0000302600E02026C00707D070BDD4E901219E
:102C100030469047206A401C20626D1EF6D570BD7C
:102C200070B5044685690078C00707D170BDD4E946
:102C3000012120209047206A401C20626D1EF6D59D
:102C400070BD00002DE9F04106460024106875298A
:102C5000314616A510D0AFF30080002802DA4042BA
:102C600013A507E031688A0701D512A502E04907DC
:102C700004D511A5012401E0AFF3008000210A2250
:102C800006F1240709E0B0FBF2FCB0FBF2F302FB13
:102C90001C00303078541846491C0028F3D12346D4
:102CA0002A463046BDE8F04100F09EB80000000022
:102CB0002D0000002B000000200000002DE9F0474F
:102CC0004FF0000A89460446C0F820A02046E1687B
:102CD0008847002876D0252806D0D4E901219047DE
:102CE000206A401C2062F1E7E16820460025884701
:102CF000C4F81CA006460027C4F818A02A2E09D044
:102D0000304601F0BDF838B304EB8708303EC8F810
:102D1000186019E059F8041B204604EB8702916102
:102D2000E1688847012F064618D1E069002820DABB
:102D300025F020051DE0D8F8180000EB800006EB18
:102D400040003038C8F818002046E1688847064639
:102D500001F096F80028EED1012F0AD02E2E08D1CE
:102D60002046E16888477F1C0646022F45F0200573
:102D7000C4DBA069002803DA404245F00105A061E8
:102D8000E80701D025F01005B6B1A6F141001928D9
:102D900002D8203645F400654A4631462046256073
:102DA0004D46FDF71FFA58B1012806D0ED1D25F05C
:102DB000070000F1080989E704E005F1040985E747
:102DC00030468AE7206ABDE8F08770477047704751
:102DD000704710B500F0A2FA006810BD10B50446A7
:102DE00000F09CFA046010BD2DE9F0470D469946AD
:102DF0009246044600F124080168880604D5E0697B
:102E000021F01001216000E00120A84201DD471BF4
:102E100000E00027A1697A1902EB0900081AA061F5
:102E20002078C00602D42046FFF7E4FE002608E022
:102E3000D4E901211AF806009047206A401C761C4C
:102E400020624E45F4DB2078C0060AD52046FFF705
:102E5000D1FE06E0D4E9012130209047206A401CD1
:102E60002062381EA7F10107F4DC07E0D4E9012154
:102E700018F805009047206A401C2062281EA5F122
:102E80000105F3DC2046FFF7CBFE2078000602D5D3
:102E90000220BDE8F0870120FBE770472DE9FF4FD6
:102EA0000C461E464FF0FF378BB0D2E90001DDF82B
:102EB00060800A908A46C1F30A5505B93D46002153
:102EC00008464FF00000BAF1000F00F4400005DAA8
:102ED00000EB80004FF4400101EA50004FEA9059A6
:102EE000B9F1010F00DDB9460A9850EA4A000ED048
:102EF00044F61050A5F2FF3545432F14B8F1000FEA
:102F00001ED07542291E1EDDC9F100021CE0B8F179
:102F1000010F4FF0000001D0302103E0F24305E043
:102F20002154401CB042FBDB3046002200212154DA
:102F30000B99C1F80880C1E900200FB0BDE8F08FFF
:102F4000BD1B6D1CDEE74A4600DA694206A800F0A8
:102F50006FFA06AB93E8070003AB83E8070050461F
:102F60000A9900F047FB8DE80700A0F500501F38D4
:102F700000900398002D09DD42F21F014A460844E3
:102F800003A90390684600F0A6FD08E0A0F50050F4
:102F90004A461F3803A90390684600F0B0FD8DE84B
:102FA00007000004000C03D04FF0FF30410800E0A0
:102FB0001046B8F1000F03D00022009215461EE023
:102FC000751E05D400F0AEF9303262556D1EF9D58C
:102FD000B3460122084302D000227F1C04E020787F
:102FE000302801D100227F1E002A099786D01DE0DB
:102FF000112D07DA00F096F9303262556D1C50EA57
:103000000102F5D1084302D00098C8B10EE00021BA
:10301000681E05E0235C625C63542254401E491C18
:103020008142F7DBAB46A81B401E0990002004F844
:103030000B000B98099AC0F80880C0E9002B7CE7C8
:1030400011264FF0000859E72DE9F04F8846044655
:10305000D21D22F0070191B0D1E90001CDE90A01AA
:1030600000F083FE02460B98C00F01D02D2007E030
:103070002068810701D52B2002E0202101EAC00051
:10308000032A099001D0072A05DB03464146204662
:1030900000F08EF90BE12078800601D5E06900E0B0
:1030A0000620B8F1650F814606D0B8F1660F18D03A
:1030B000B8F1670F70D131E00020B9F1110F009025
:1030C00001DB112301E009F101030AAA01A90CA8FF
:1030D000FFF7E4FEDDE90C70002609F101058346E7
:1030E00047E001204B4600904FF000470AAA01A993
:1030F0000CA8FFF7D3FEDDE90DB00C995D46002664
:1031000010B909F101000D18B9EB050003D4C0F1A5
:10311000FF3609F10105A5EB09002BE0B9F1010F1C
:1031200001DA4FF001090020B9F1110F0090484673
:1031300001DD112300E003460AAA01A90CA8FFF74C
:10314000ADFEDDE90C704D46002683462078000771
:103150000AD4AB4500DA5D4601A8012D04DD411912
:1031600011F8011C302907D04F4502DA17F1040F7E
:1031700004DA012082460FE06D1EEEE7002F02DC2C
:10318000ED1B3E4403E0781CA84200DD7D1CB81B0B
:1031900000F1010A4FF000472078000703D4AA4548
:1031A00001DB4FF0FF3A0021B7F1004F0DF143086A
:1031B0008DF8431024D002202B23002F01DA7F4208
:1031C0002D230A21021EA0F1010000DC5FB197FB54
:1031D000F1FC97FBF1F201FB1C7C17460CF1300C63
:1031E00008F801CDEEE7A8F1010003702188090578
:1031F00001D5452100E06521A0F1010800F8011C7E
:1032000009980FA9A1EB0807FF1D00B10120411982
:1032100001EBEA70A1693844081A401EA0612078C9
:10322000C00602D42046FFF7E5FC099828B1D4E98E
:1032300001219047206A401C20622078C00622D5D8
:103240002046FFF7D7FC1EE0002E04DBB34502DD6D
:1032500001A8805D00E03020D4E901219047206A78
:10326000401C2062761CAAF101005FEA000A0AD124
:1032700000F050F8C0680168405CD4E90121904733
:10328000206A401C2062281EA5F10105DCDC07E055
:10329000D4E9012118F8010B9047206A401C2062F4
:1032A000381EA7F10107F3DC2046FFF7B9FC032025
:1032B00011B043E601694A1C02610878704700B505
:1032C0008FB0CDE901310021059105497944CDE95F
:1032D000031011466846FFF7F1FC0FB000BD000077
:1032E000E5FFFFFF0A6802F8010B0A607047000063
:1032F000074B70B50D467B44FFF7E1FF04462846B7
:1033000000F004F910B14FF0FF3070BD204670BDE1
:1033100021EAFFFF004870478406002000487047FC
:103320006406002030B5B0F10A024FEA900E71F148
:1033300000034EEA817EB0EB0E0061EB91014FEA93
:10334000101E4EEA017E10EB0E0041EB11114FEA08
:10335000102E4EEA016E10EB0E0041EB11214FEAE8
:10336000104E4EEA014E10EB0E0041EB1141401899
:1033700041F100014FEAD00040EA41704FEAD1012B
:1033800010EB80054FEA810444EA907444EB010499
:103390006D1944EB0404521BA3414FF0000348BFD6
:1033A0000A3200D530BD401C41F1000130BD0000A3
:1033B0002DE9F0411F46044603260168072A01F45F
:1033C000006004DB08B116A505E016A503E008B10E
:1033D00015A500E015A521F010002060A069C01E11
:1033E000A0610FB1401EA0612046FFF703FC4FB162
:1033F000D4E9012138469047206A401C2062C01C55
:10340000206206E0206AFAE7D4E9012115F8010BF1
:103410009047761EF8D22046FFF702FCBDE8F08107
:103420004E414E006E616E00494E4600696E660068
:103430002DE9F047814616468AB0334878440DC8D6
:103440008DE80D0030487844801C03AC0DC884E83A
:103450000D0041F69B300844372190FBF1F290FBC0
:10346000F1F5A5F1800501FB12041B3C02D5644275
:10347000012000E00020DFF890A080460027FA44F9
:10348000AAF1BE0A0DE0E00709D03246684607EB14
:1034900047010AEB810100F032FB8DE80700641060
:1034A0007F1C002CEFD1184F7F44AC3F18E0E80799
:1034B00014D007EB04100DF1180A90E80E008AE80A
:1034C0000E00C068F04201D198190890324606A952
:1034D00003A800F014FB03AB83E807006D10641C25
:1034E000002DE4D132466946B8F1000F03A802D09E
:1034F00000F0F1FA01E000F002FBC9E90001C9F8AF
:1035000008200AB0BDE8F0874C380000007B00F0CE
:103510008000704700487047640600207546FFF73A
:10352000F9FFAE4605006946534620F00700854680
:1035300018B020B5FFF72AFBBDE820404FF0000689
:103540004FF000074FF000084FF0000B21F007018B
:10355000AC46ACE8C009ACE8C009ACE8C009ACE8CE
:10356000C0098D4670470446AFF300802046FCF743
:1035700056FE00004FF0013C50F8042B51F8043B7C
:103580009A4221D1A2EB0C03934313EACC1317D137
:1035900050F8042B51F8043B9A4215D1A2EB0C03CE
:1035A000934313EACC130BD150F8042B51F8043B8E
:1035B0009A4209D1A2EB0C03934313EACC13DBD05C
:1035C0004FF00000704700BFD01A01BAB1FA81F184
:1035D00001F0180122FA01F0CB40C1F12001DBB269
:1035E000C0B2C01A2CFA01F3D11A914311EAC311E7
:1035F000E6D170475FEA400C08BF91F0000F4FEA38
:103600008C234FEAC12243EA51514FEA1C5018BFA4
:1036100000F5F0404FEA300018BF41F000415FEA8A
:103620006C5C00F02980BCF1FF3F08BF40F0804097
:103630007047130C06BF12044FF0100C4FF0000C33
:10364000130E04BF12020CF1080C130F04BF120179
:103650000CF1040C930F04BF92000CF1020CD30F79
:1036600004BF52000CF1010C11464FF00002A0F112
:103670001F00A0EB0C00704711F0004F08BF70470F
:1036800031F000413FF4D5AF0B0C06BF09044FF0F9
:10369000100C4FF0000C0B0E04BF09020CF1080CCB
:1036A0000B0F04BF09010CF1040C8B0F04BF890040
:1036B0000CF1020CCB0F04BF49000CF1010CCCF152
:1036C0002003A0EB0C0022FA03F302FA0CF241EA09
:1036D000030100F10100704720F07F4C80EA0300F5
:1036E00023F07F47ACEB070303F57C5300F0004069
:1036F00003F1FF032DE980494FEA154B09B44FEA66
:10370000144325EA0B4E24EA03480FF2042606EB85
:10371000132749083E785FEA320203FB0667C7F5C4
:10372000000707FB06F64FEA54374FEAD64606F184
:10373000020607FB066CCCF1005C4FEA1C472CEA42
:10374000074C07FB06F40CFB06F504EB15464FEAA5
:10375000961634BF00204FF000404FEAD13706FBE9
:1037600007FC4FEA1C4C0CFB0BF7D21B03FB0CF7BE
:1037700061EB07010CFB0EF7B0EB074072EB174251
:103780000CFB08F734BFA2EB0742B2EB074261EB38
:1037900017414FEA0C444FEA910706FB07FC4FEA3A
:1037A0001C4C0CFB0BF7B0EBC74072EB573203FB22
:1037B0000CF734BFA2EBC742B2EBC74261EB573103
:1037C0000CFB0EF7B0EBC70072EB57720CFB08F75F
:1037D00034BFA2EBC702B2EBC70261EB5771039F84
:1037E0004FEA816141EA921104EBCC044FEAD137F0
:1037F0004FEA826206FB07FC42EA90124FEA8060C1
:103800004FEA1C4C0CFB0BF7D21B03FB0CF761EBD4
:1038100007010CFB0EF7B0EB074072EB17420CFBF5
:1038200008F734BFA2EB0742B2EB074261EB174146
:103830004FEA8C554FEA910704EB9C2406FB07FCEA
:103840004FEA1C4C0CFB0BF7B0EBC74072EB573246
:1038500003FB0CF734BFA2EBC742B2EBC74261EBEC
:1038600057310CFB0EF7B0EBC70072EB57720CFB35
:1038700008F734BFA2EBC702B2EBC70261EB577186
:1038800015EB4C254FEA816141EA92114FEA8262C1
:103890004FEAD13742EA901206FB07FC44F10004DC
:1038A0004FEA80604FEA1C4C0CFB0BF7D21B03FB6A
:1038B0000CF761EB07010CFB0EF7B0EB074072EB66
:1038C00017420CFB08F734BFA2EB0742B2EB0742EA
:1038D00061EB174115EB1C154FEA813141EA92412A
:1038E0004FEA823242EA90424FEA80304FEA0C7649
:1038F00044F1000448EA03434EEA0B484FF0000E3F
:10390000B2EB080C71EB030724BF624639464EEB5D
:103910000E0E4FF0000B0018524149414BEB0B0BC0
:10392000B2EB080C71EB03077BF1000B24BF62467E
:1039300039464EEB0E0E4FF0000B00185241494134
:103940004BEB0B0BB2EB080C71EB03077BF1000B9D
:1039500024BF624639464EEB0E0E51EA020718BFED
:1039600046F0010616EB0E7655F1000254F1000107
:1039700003D5BDE88901BDE80088BDE88901BDE83F
:103980000048B619524141EB0101A3F10103704710
:1039900080807F7E7D7C7B7A79787776767574738C
:1039A000727171706F6E6E6D6C6C6B6A6A6968684B
:1039B000676666656464636362616160605F5F5EE1
:1039C0005E5D5D5C5C5B5B5A5A5959585857575657
:1039D00056555555545453535252525151505050BC
:1039E0004F4F4F4E4E4D4D4D4C4C4C4B4B4B4A4A0E
:1039F0004A49494948484847474747464646454552
:103A0000454444444443434343424242424141418A
:103A1000002B26D4770021D01CB54FEA370703B41A
:103A20004FF010004FF010014FF000000FBCBDE848
:103A300010400BF1010BBBF1010F08BF5FEA170744
:103A400022BF12F1010211F101014FF0004143F1D7
:103A5000000300F0004043EA00007047F9D3570824
:103A6000DAE746EA064613F1400F4FEA16461FDD35
:103A700013F1200FDFBF16430A46002120335B42BB
:103A8000C8D0C3F1200746EA064602FA07F74FEA14
:103A9000164646EA0706C3F1200722FA03F201FAA6
:103AA00007F721FA03F14FF0000342EA0702B1E7FA
:103AB00046EA020646EA06464FEA164646EA010686
:103AC000BCBF46EA0646360C4FF000034FF000023A
:103AD0004FF000019EE72DE9C048934630B491E8CD
:103AE000380007C831EA400C48BF34EA430C03D51C
:103AF000FFF7F2FDFFF78CFFF0BCBDE800882DE971
:103B0000C048934630B491E8380007C810F0804FA1
:103B100008BF13F0804F03D100F005F8FFF778FFDE
:103B2000F0BCBDE8008820F07F4780EA030023F066
:103B30007F4C07EB0C03A3F57C5300F00040A3F18E
:103B4000FE0392F0000F00F0B38095F0000F00F03C
:103B500077802DE901494FEA11404FEA144621EAE6
:103B6000004800FB06FC24EA064708FB06F607FBB4
:103B700008F800FB07F718EB06484CEB164C4FEA29
:103B8000124B18EB07484FEA15464CEB174022EA58
:103B90000B4E0BFB06FC25EA06470EFB06F607FB61
:103BA0000EFE0BFB07F71EEB064E4CEB164C4FF0D0
:103BB00000061EEB074E4CEB174B18EB0B0840F1C1
:103BC000000018EB0E0B58EB000840F100008F1AB4
:103BD0004FF000013CBFC943661B14BFB5EB040C9A
:103BE00000213CBFC943F61B4FEA17444EEA8E0E34
:103BF00027EA04454FEA1C4704FB07622CEA074CFE
:103C000005FB07F70CFB05F604FB0CFC16EB07465F
:103C100042EB174216EB0C4642EB1C421BEB06062E
:103C200058EB0202414146EA9E0601D5BDE80189F2
:103C3000B619524141EB0101A3F10103BDE801892D
:103C40004FEA14454FEA114724EA054621EA074C9A
:103C500005FB07F406FB07F70CFB06F105FB0CFC64
:103C600011EB074144EB17444FEA124711EB0C41AB
:103C700044EB1C4422EA074C05FB07F206FB07F75E
:103C80000CFB06F605FB0CFC16EB074642EB174255
:103C900016EB0C4642EB1C456A1854F1000148BF74
:103CA0007047B619524141EB0101A3F1010370477E
:103CB00095F0000F37D04FEA11424FEA144721EA3E
:103CC000024624EA074C02FB07F106FB07F70CFB50
:103CD00006F402FB0CFC14EB074441EB17414FEADE
:103CE000154714EB0C4441EB1C4125EA074C02FB41
:103CF00007F506FB07F70CFB06F602FB0CFC16EBC0
:103D0000074645EB174516EB0C4645EB1C421219CE
:103D100051F1000148BF7047B619524141EB010112
:103D2000A3F1010370474FEA14454FEA114724EA13
:103D3000054621EA074C05FB07F106FB07F70CFBDC
:103D400006F24FF0000605FB0CFC12EB074241EBBC
:103D5000174112EB0C4251EB1C4148BF70479218BF
:103D600041EB0101A3F101037047490050EAC12072
:103D700018BF04204A0D18BF40F0010040F2FF7246
:103D8000B2EB515F08BF40F00200012808BF0520D8
:103D900070472DE9F0414F1E00EBC7010446D1E901
:103DA000000115461E4637F006020DD02A4633465E
:103DB00001F090FB7F1E04EBC703D3E9002301F061
:103DC000A3F837F00602F1D1022F25D0042F13D02B
:103DD000062F18BFBDE8F0812A46334601F07AFB72
:103DE000D4E90A2301F090F82A46334601F072FB29
:103DF000D4E9082301F088F82A46334601F06AFB2B
:103E0000D4E9062301F080F82A46334601F062FB2C
:103E1000D4E9042301F078F82A46334601F05AFB2E
:103E2000D4E9022301F070F82A46334601F052FB30
:103E3000D4E90023BDE8F04101F066B80022134642
:103E40001046014901F01CB90000F03F012202F0C8
:103E5000FAB901F059B8002213461046114601F094
:103E60000FB940F2013200204FF0E04102F0EBB90F
:103E7000024A0020110702F0E6B9000001FDFFFF31
:103E800030380A2801D20120704700207047000016
:103E90002DE9F04D894BCE0F21F0004784B0054647
:103EA0000C469F4230D38648874211D3C7F3130094
:103EB000284305D004B02846BDE8F04DFFF7C6BF43
:103EC000002E1ABF00200146284604B0BDE8F08D40
:103ED0007C4A284601F0FCFB07D20220FEF77EFF59
:103EE00004B0BDE8F04DFFF7BCBF774A774B2846DA
:103EF000214601F0B3FA07D20220FEF76FFF04B0AB
:103F0000BDE8F04DFFF7B4BF7148B84248D27148E0
:103F1000874215D27048784400EBC6002146D0E9AC
:103F20000023284601F0FCFCCDE900016B487844F1
:103F300000EBC600D0E900ABC6F10100861B26E00D
:103F4000674A684B2846214601F0C4FA664A7A441B
:103F500002EBC603D3E9002300F0D6FF01F024FAF8
:103F6000064601F050FA07468846604A604B01F069
:103F7000B1FA2A46234601F0E1FBCDE900015D4A92
:103F80005D4B3846414601F0A5FA82468B46DDE995
:103F9000000152465B4601F0C3FC05460C4618E0A2
:103FA0005648874214D2564A564B2846214600F0BE
:103FB000ABFF554E0022334601F08AFB08D204B015
:103FC000334628462146BDE8F04D002200F09CBF54
:103FD00000262A4623461046194601F07BFA804601
:103FE00002464A480F460B4605217844FFF7D1FEAA
:103FF00042463B4601F06EFA2A46234601F09EFBFC
:1040000007468846E6B302460B4600204FF0804143
:1040100001F086FCCDE902013A4643462846214696
:1040200001F058FADDE9022301F02AF852465B4616
:1040300001F084FBDDE9002301F072FC0022324B29
:1040400001F07CFB6FF47F729642A2BF01EB065138
:1040500004B0BDE8F08D4FF07A5202EB06521144E5
:104060002B4A02F0F0F804460D46FFF77EFE0428C6
:1040700008BFFFF7FDFE204604B02946BDE8F08DDD
:10408000FFE700224FF0804301F04AFC82460E46D3
:104090003A4643462846214601F01CFA524633462A
:1040A00000F0EEFF2A46234601F03AFC04B000225D
:1040B000BDE8F04D144B01F041BB0000422E86409C
:1040C0000000F07FEF39FAFE51302DD5104987C03E
:1040D000422ED63FB2A2F03FE62B0000DE2B0000BE
:1040E000FE822B654715F73F9E2B00000000E0FE87
:1040F000422EE63F763C7935EF39EA3D0000303E0E
:104100009C7500883CE4377E0000F03F322B0000B5
:1041100018FCFFFF2DE9F04DC84A002490B09142F1
:1041200005DA21F00043934201D805D120B110B047
:10413000BDE8F04DFFF78ABEB1F5801F1BDA53EAE8
:10414000000209D0002911DA0120FEF747FE10B065
:10415000BDE8F04DFFF77FBE0220FEF73FFEFFF700
:104160006DFE10B081F00041BDE8F08D6FF03504B8
:10417000362202F068F804EB2152C1F31308B0496B
:10418000A2F2FF33414401F4801282F07F6103EB1D
:10419000225281F04051009241EA08010022A94BCD
:1041A00001F0BEFB044608F10200A74EC0F3130065
:1041B0000D467E44032867D2D6E90023204601F04D
:1041C000B7F81ED10098002802BFD6E9000110B050
:1041D000BDE8F08D01F017F907460C469B4A9C4B51
:1041E00001F078F906460D469A4A9B4B384621461F
:1041F00001F070F910B032462B46BDE8F04D00F0EA
:1042000083BE4FF05532954B2046294601F062F9A6
:104210000022934B01F092FA06460F4622462B46A7
:104220001046194601F056F932463B4601F052F964
:10423000064600980F46F0B101F0E5F880468A4640
:10424000824A834B01F046F932463B4601F076FA4A
:1042500022462B4601F064FB05460C467D4A7E4B08
:104260004046514601F036F910B02A462346BDE8D3
:10427000F04D01F055BB0B4610B0324620462946A2
:10428000BDE8F04D01F04CBB00224FF080432046CA
:1042900000F03AFE02460B462046294600F0F0FEAA
:1042A00006460F46009801F0AEF8CDE9040132460B
:1042B0003B461046394601F00DF90C9069480C9ABE
:1042C0004044019009910B46104601F003F98246E3
:1042D000024665488B46C8F151080B4608F5D728B9
:1042E00003217844FFF755FD52465B4601F0F2F892
:1042F0000A905E480D9152465B4604217844FFF7D0
:1043000048FD099B0C9A01F0E5F8844601980D9B45
:1043100040EA080860460A9A00F0F6FD83460891D4
:10432000B8F1000F4EDD4FF0FF322046294601F074
:104330008AFF22462B4601F0CDF8804600988A4637
:1043400060B3DDE90401414A414B01F0C3F8099132
:1043500000905A4640465146089B00F0D5FD324633
:104360003B4601F0B7F8099B009A00F0CDFD4246AC
:10437000534601F0E3F922462B4601F0D1FA0446F8
:104380000D46DDE90401334A334B01F0A3F810B0C8
:1043900022462B46BDE8F04D01F0C2BA5A464046CF
:1043A000089B00F0B1FD32463B4601F093F84246CF
:1043B000534601F0C3F910B022462B46BDE8F04D3C
:1043C00001F0BCB9009840B3DDE904011F4A204B5D
:1043D00001F080F880468A465A4620462946089BC6
:1043E00001F09EFA32463B4601F074F842465346CD
:1043F00001F096FA22462B4601F092FA04460D4649
:10440000DDE90401134A144B01F064F810B02246B0
:104410002B46BDE8F04D01F083BA0B465A462046C4
:10442000294601F07DFA32463B4601F053F810B0C0
:1044300022462B46BDE8F04D01F080B90000F07F28
:10444000645F09000000F03F522A0000763C793595
:10445000EF39EA3D0000E0FE422EE63F5555D53FDC
:104460000000E03F86EBF9FF6228000060280000B2
:104470002DE9F04D16460F4694B01C4621F0004140
:1044800023F00042002814BF4FF0010C4FF0000C45
:104490000CEB470CFE4B0CEB03054FEA630C654538
:1044A0002BD3350018BF012505EB44051D44F94BFE
:1044B0009D4222D3F84B52EA060C02D09F4205D10E
:1044C00048B914B000201946BDE8F08D002808BF97
:1044D0004FF0000C01D04FF0010C0CEB470313F52B
:1044E000001F0AD8002E14BF4FF0010C4FF0000C33
:1044F0000CEB440313F5001F07D914B032462346D2
:104500003946BDE8F04DFFF7A4BCDFF890834FF0CB
:10451000000A002FB8BF424523DAE14B9A42A8BFF8
:104520004FF0020A1DDADC4B93421ADCDD4B03EB41
:104530002253142B08DDC3F1340C26FA0CF303FAD2
:104540000CFCB4450DD108E05EB9C3F1140C22FA9D
:104550000CF303FA0CFC944503D103F00103C3F1FF
:10456000020A51EA00031BD1002C19DA002F18BFF0
:10457000BAF1020F02D0BAF1010F07D00220FEF704
:104580002DFC14B0BDE8F04DFFF758BC0220FEF73B
:1045900025FCFFF753FC14B081F00041BDE8F08D1D
:1045A000330070D1424525D107F1804212F58012C7
:1045B00001BF00280020B84914B008BFBDE8F08D45
:1045C000B548884207DC002CA1BF1846214614B02C
:1045D000BDE8F08D07E0002CBFBF184684F0004115
:1045E00014B0BDE8F08DB0497944D1E9000114B0B0
:1045F000BDE8F08DDFF8A0C262452AD1002C24DA94
:1046000039B1414517D1002804BF002002461CD112
:1046100006E040B10220FEF7E1FBFFF722FC0A466C
:10462000394600F0D7BA9D4A394614B0002062F3EB
:104630001E01BDE8F08D08DA14B03B46BDE8F04D30
:1046400002460020614600F01BBD14B03946BDE8AB
:10465000F08D414517DAB4F1804F0CD0A4F100532E
:10466000B3F1FF530FD13B1E0DDB14B01946BDE86B
:10467000F04D00F0DBBB3B4614B00246BDE8F04D08
:10468000194600F027BF050027F000433AD1E1B1F9
:10469000414537D1002F06DD002CA1BF0020414647
:1046A00014B0BDE8F08D002F01DD002C1FDB002FC2
:1046B00016DA002C14DBBAF1010F4FF0000014BF22
:1046C00076497A4914B0BDE8F08DBAF1020F18BFEF
:1046D000002F0CD0BAF1010F09D1002F07DA0BE03F
:1046E000002FB8BF002C0DDABAF1010F04D0002062
:1046F00014B00146BDE8F08D14B000204FF0004129
:10470000BDE8F08D4FF0010808EBE77CCDF814C050
:104710005CEA0A0C0DD0DFF898C162457EDDDFF857
:1047200094C1654B624512DD8B420ADB002C18DB1D
:1047300023E00120FEF752FB14B0BDE8F04DFFF777
:104740008ABB554A8A4202DC002C0ADC15E09942F9
:1047500002DA002C11DA04E04F4B994219DD002CEB
:104760000BDD0220FEF73AFBFFF77BFB4B4A14B050
:1047700061F31E021146BDE8F08D0220FEF72EFB0C
:10478000FFF776FB444A14B061F31E021146BDE800
:10479000F08D0022394601F0C3F807460D466FF050
:1047A000010201F050FD4FF05532444B00F0C6FFBE
:1047B0003A462B4600F08EFE0022414B00F0BEFF31
:1047C00080468B463A462B461046194600F082FE3C
:1047D00042465B4600F07EFE88460E904FF0C04297
:1047E000384B3846294600F075FE83460091364A1C
:1047F000344B41460E9800F06DFE80460191334ADD
:10480000334B3846294600F065FE4246019B01F0D5
:1048100087F80D4602460B460C9000E011E0584622
:10482000009900F071FB002788465A463846009BE5
:1048300001F076F82B460C9A00F080FF024600F05B
:1048400079B90020B1F5801F07DA352228461946CC
:1048500001F0F9FC05466FF0340000EB2150A0F2A6
:10486000FF300190C1F3130040F07F6141F04051EF
:10487000029118498842D8BF4FF0000B35DD164928
:104880008142C8BF4FF0010B2FDC4FF0000B25E039
:10489000FFFF1F00FFFF0F000000F03F0000F07F50
:1048A0000000404301FCFFFF1C2600000000F0FF59
:1048B0000000E0410000F043FFFFEF3F5555D53FBA
:1048C0000000E03F4715F73FFE822B6544DF5DF8AF
:1048D0000BAE543E8E9803007AB60B000198401C34
:1048E00001900298A0F580100290FF480299784448
:1048F00000EBCB000991D0E9002328460B931292DC
:1049000001F00EF800910A9028460B9B129A099923
:1049100000F0FAFA02460B460020F44900F0B0FB22
:10492000CDE90C010B46024600990A9800F0D2FD31
:104930000690EF4888460027784402990068109056
:104940004FF0005040EA610000EB8B4000F5002181
:1049500002910B9B129A109800F0E2FF2A46099BE5
:1049600000F0ECFE3A46434600F0B4FD0891129088
:1049700038464146029B109A00F0ACFD009B0A9A13
:1049800000F0DCFE089B129A00F0CAFFDDE90C2360
:1049900000F0A0FD0B91069A12904346104619466E
:1049A00000F098FD05460246D2480B460A910621C2
:1049B0007844FFF7EEF90A9B2A46089102901046C8
:1049C000194600F087FD089B029A00F083FD05461A
:1049D0000991434638461946069A00F095FA0B9B12
:1049E000129A00F077FD2A46099B00F08DFACDE976
:1049F00008013A4643461046194600F06BFD0A91FD
:104A00000022BD4B009000F07FFADDE9082300F0A2
:104A10007BFA0D463A46B84B384600F081FF0A9BB8
:104A2000009A00F07DFFDDE9082300F087FECDE964
:104A300008013A462B461046414600F04BFD0091D6
:104A40000A90DDE908014346069A00F043FD06900E
:104A500088462B463A460B99129800F03BFD434698
:104A6000069A00F051FA80460B4602460D910099D5
:104A70000A9800F049FA00200F460546009B0A9A62
:104A800000F04EFF42460D9B00F058FE88460E9007
:104A90004FF06042994B2846394600F01BFD0291C9
:104AA0000090974A954B41460E9800F013FD8046C2
:104AB0000391944A944B2846394600F00BFD424638
:104AC000039B00F021FA914A7A4402EBCB03D3E92D
:104AD000002300F019FA05460791019800F093FCB5
:104AE0000C9003912A46079B0299009800F00CFA5B
:104AF000874A7A4402EBCB03D3E900239346019320
:104B000000F002FA039B0C9A00F0FEF90027884699
:104B10003846039B0C9A00F003FF5A46019B00F0B5
:104B2000FFFE029B009A00F0FBFE2A46079B00F066
:104B300005FE02460020069005986C4DAAF101037F
:104B4000184301D1734D069000200B460490304667
:104B5000214600F0BFFC82468B462346304619466C
:104B6000049A00F0DDFE3A46434600F0B3FC52469C
:104B70005B4600F0C9F906468A463A464346214656
:104B8000049800F0A7FC04460F463246534600F056
:104B9000BBF9614A8B46914221DBABEB020353EA3E
:104BA000000210D122463B4600F0BAFE8046039137
:104BB0005A4A5B4B3046514600F0A6F94246039BE9
:104BC00000F086FD27D20220FEF708F9FFF749F929
:104BD0000A46294614B062F31E01BDE8F08D514B20
:104BE0002BF000429A4216D34F4A0BEB020353EAD2
:104BF000000208D122463B4600F092FE3246534660
:104C000000F066FD07D80220FEF7E8F8FFF730F95C
:104C10000A462946DEE72BF000404449444A01EBAE
:104C200020514FF00008824223DA481C4FF48011D3
:104C300021FA00F058443F4AC0F30A517A443E4BEF
:104C4000A1F2FF31CB4020EA0303C0F3130040F48C
:104C5000801CC1F1140012682CFA00F8BBF1000F9F
:104C6000B8BFC8F100082046394600F059FE044696
:104C70000F4622463B463046514600F045F94FF07C
:104C8000000B5A462D4B5846039100F023FC00912F
:104C90000A902B4A2B4B5846039900F01BFC0491B9
:104CA000029022463B465846039900F039FE3246B0
:104CB000534600F043FD244A244B00F00BFC049BB8
:104CC000029A00F021F907468A46009B0A9A00F0F2
:104CD0001BF904460E46009B0A9A00F021FE3A4654
:104CE000534600F02BFD33E08E2200000000F03F21
:104CF000CC220000FC2100000000084009C7EE3F64
:104D0000FD033ADCF5015B14E02F3EBED420000029
:104D10009A2000000000F0BF00009040FE822B654A
:104D20004715973C00CC904000346F3F01FCFFFFDB
:104D30000000E03FC81F0000FFFF0F00432EE63FCA
:104D4000396CA80C615C20BEEF39FAFE422EE63FBA
:104D50000746224633460F911046194600F0BAFB2B
:104D6000834602462E488A460B4605217844FFF7C3
:104D700010F85A46534600F0ADFB2246334600F089
:104D8000DDFC82468B463A46204631460F9B00F0BA
:104D9000A1FB3A460F9B00F0B7F80F460A9000229D
:104DA0004FF080435046594600F0BAFD0391009001
:104DB00052465B462046314600F08CFB039B009A2E
:104DC00000F05EF93B460A9A00F0AAFD22463346FF
:104DD00000F0A6FD0022134B00F0B0FC0E46044686
:104DE00001EB08510815002810DC424620463146E8
:104DF00001F029FAFEF7B9FF042808BFFFF738F8D9
:104E000042462046314601F01EFA044606980B46FB
:104E100014B022462946BDE8F04D00F05BBB00000F
:104E2000701E00000000F03FFFF722BB2DE9F041AB
:104E300006460F4600F08EFC04000D4618BF012008
:104E4000284320F00040C0F17F6000F1E040C00F37
:104E50000ED0301C18BF0120384320F00040C0F1B4
:104E60007F6000F1E040C00F04BF0120FDF7B6FFF6
:104E700020462946BDE8F08110B500290AD00878FF
:104E8000002807D005487844FEF774FB002801D0BD
:104E9000002010BD0248784410BD00003E1E0000F6
:104EA000361E000021F00042A2F16052B2F5801FD0
:104EB00001F0004328BFD2F17F6C0BD95FEA001CE0
:104EC00043EAC20242EB507018BF704728BF20F07F
:104ED00001007047B2F5801FBCBF184670474FEA0B
:104EE000410C1CF5001F02D2084601F0C2B870B593
:104EF00000F09AFB00000089FFF7F6BF4FF000407A
:104F0000A0F580007047000010B591EA030F48BF7C
:104F100083F0004300F10C85841A71EB030C05D279
:104F2000121943EB0C03001B61EB0C01DFF824E1C9
:104F30004FEA1154A4EB135C1EEA430F18BF9EEA1C
:104F4000445F73D023EA0E03DCF1200E21EA045102
:104F500043F4801332D322FA0CFE10EB0E0023FA36
:104F60000CFE41EB0E01CCF1200E03FA0EFE10EB0D
:104F70000E0051F10001B1F5801FCCF1200E32D2AC
:104F800001EB045112FA0EF2BDE8104058BF704711
:104F9000401C38BF5FEA420218BF7047002814BFA8
:104FA00020F0010041F100014FEA410313F5001F19
:104FB00038BF7047A1F1C04100F084BB012A43EB28
:104FC0000302ACF1200CDCF11F0E32BF4FF0000EDB
:104FD00023FA0CF310EB030041EB0451B4EB115F27
:104FE000D0D0A1EB045101F5801149085FEA3000EF
:104FF00001EB04510ED350F1000038BF12FA0EFE3F
:1050000008D1BDE81040C9E7401C38BF5FEA420242
:10501000CAD1C3E7BDE810404FEA410313F5001FB2
:1050200038BF7047A1F1C04100F04CBB9EEA445F1D
:1050300008D011EA5E0FBDE8104004BF01F0004146
:1050400000207047BDE8104070B500F0EDFA00BFD9
:1050500064FBBE3E0000E0FF02494FF0000001F09B
:10506000C0B800BF0000F87F491058BFC1F14041EF
:105070005B1058BFC3F140438B42EFF30080704791
:105080002DE9C04130B4DFF8A0C23CEA111418BFCA
:105090003CEA131400F0EC8081EA03051CEA1114C9
:1050A00044EAD57418BF1CEA131500F0C780A4EBBE
:1050B00005044FF0004545EAC12145EAC32341EA12
:1050C000505143EA525304F17F74994204F500347D
:1050D0004FEAC0204FEAC22208BF904200F09C80F5
:1050E0004FEA13650FF24016765D4FEA134506FB53
:1050F00005F7C7F1807706FB07F74FEAD737A7FB1D
:1051000003687642C8F58038A7FB06CE38BFA8F101
:10511000010807FB08E64FF0000EA6FB028CE6FB39
:1051200003CEDCF1000CCEF1004E38BFAEF1010E23
:10513000A6FB0C584FF000074FF00005E6FB0E876A
:10514000A1FB08C6A0FB07CE16EB0E0645F1000535
:10515000E1FB076515F1E04E7EBFA4F580345FEA00
:1051600046066D4116F1800745F100054FEA172705
:105170004FEA066647EA0567A6F1DE46B6F1805FAC
:105180004FEA15251FD9384624F0010C05EBC471F0
:10519000BCF1FE6F01EB0C1102D8F0BCBDE8008140
:1051A00024425CBF01F5801E9EEAC47F02D4F0BC9D
:1051B000BDE80081244238D4F0BCA1F1C041BDE873
:1051C000004100F07FBA4FEAD22242EA43524FEA4E
:1051D000D323A7FB02864FEAD02040EA415007FBC9
:1051E00003661EEA0E0F4FEAD12105FB026658BF87
:1051F000A6EB0056B6EB00564FEA520E4EEAC37EBF
:1052000018EB0E0E56EB530EBDD518EB02085E419F
:105210007F1C55F10005B6E74FF480154FF00007ED
:105220004FF000064FF00008ADE7F0BC4FF0000073
:1052300001F1C04101F00041BDE8008111EA0C1FFD
:105240000CEA131500D00CE013EA0C1F00F02580C7
:105250004FF00000F0BC81EA030101F00041BDE81D
:105260000081F0BCBDE8004181EA030100F02ABAE8
:10527000F0BCBDE8004170B500F0D6F9097EFC3EF7
:1052800000F007B881EA03014FF0000001F000418F
:10529000704781EA030100F015BAF0BCBDE8004197
:1052A0004FF0000021497047FFFDFBF9F7F5F4F2DC
:1052B000F0EEEDEBE9E8E6E4E3E1E0DEDDDBDAD8B1
:1052C000D7D5D4D3D1D0CFCDCCCBCAC8C7C6C5C40F
:1052D000C2C1C0BFBEBDBCBBBAB9B8B7B6B5B4B326
:1052E000B2B1B0AFAEADACABAAA9A8A8A7A6A5A411
:1052F000A3A3A2A1A09F9F9E9D9C9C9B9A999998D5
:105300009797969595949393929191908F8F8E8E77
:105310008D8C8C8B8B8A8989888887878685858404
:1053200084838382828181800000FF070000F87FF0
:1053300051EA030C17D41CF5801F58BFBCF5801F21
:1053400000F10680994218BF704708BF904270472D
:1053500007D711F5801F58BF13F5801F19D4994244
:105360007047894270471CF5801F08D5BCF5801F27
:10537000F7D58B4218BF704708BF824270474FF481
:10538000001C1CEB410F38BF1CEB430F01D28B42BA
:10539000704770B500F048F9922449004FF0005171
:1053A0004FF08053FFF760BE4FEA41034FEA53537B
:1053B000A3F58063D3F11E03C8BFD3F1210C0CDD2C
:1053C0004FF0004242EAC12242EA505232FA03FC54
:1053D0008CEAE17CACEBE1707047102BC4BF00207D
:1053E000704703F5787CBCF1FF3F04D06FF00042BA
:1053F00082EA2100704770B500F016F949922480C6
:1054000000207047F2E710F0004248BF4042B0FA77
:1054100080F310FA03F10AD0C3F11D0303F5806392
:105420004FEA415002EB035202EBD12170474FF09B
:1054300000007047B0FA80F310FA03F10AD0C3F10C
:105440001D0303F580634FEA41504FEA035202EB1C
:10545000D12170474FF000007047000051EA030C63
:1054600017D41CF5801F58BFBCF5801F00F10680C3
:10547000994218BF704708BF9042704707D711F58F
:10548000801F58BF13F5801F19D499427047894275
:1054900070471CF5801F08D5BCF5801FF7D58B42DF
:1054A00018BF704708BF824270474FF4001C1CEBC6
:1054B000410F38BF1CEB430F01D28B42704770B5D0
:1054C00000F0B2F8922449004FF000514FF08053A1
:1054D000FFF7CABDDFF848C170B51CEA111E1EBF38
:1054E0001CEA13159EEA0C0F95EA0C0F00F06F8072
:1054F00081EA030423EA4C134EEAD47E21EA4C11DC
:1055000041F4801143F48013AE44A1FB024CA0FB94
:105510000365AEF17F7E361955EB0C05A1FB034CFC
:105520004CF10003A0FB021C16EB0C06654153F185
:105530000003094218BF46F0010613F4007F0BD1A7
:105540004FEA03314FEA0530340341EA155140EA8E
:1055500016506FF003020AE04FEAC3214FEAC5205C
:10556000F40241EA555140EA56506FF0020202EB54
:105570002E4201EB025585EACE710AD05FEA440C57
:1055800018BF24F0004450F1000041F1000120EA6E
:10559000D47040F2FE7C624500D270BDA84214BFB8
:1055A0004FF080444FF04044002E08BF0024BEF16D
:1055B000806FA8BFA1F1C041BDE8704080F2828039
:1055C0004FF0000001F1C04101F0004170479EEA38
:1055D0000C0F0CEA131518BF95EA0C0F06D04FF00C
:1055E000000081EA030E0EF0004170BD00F01CF8CF
:1055F0008900013E00F007B800F009B84FEA430CFB
:105600005FEA5C5C08D081EA030100F05BB84FEA16
:10561000410C5FEA5C5CF6D14FF000000149704735
:105620000000FF070000F87F0EF1020E2EF0030EBF
:105630005EF8046B364205D4012A43EB030515F5E9
:10564000001F12D8012841EB010C1CF5001F0CD8DB
:105650000ED14FEAD17C15F5001F0CEB4C0C0CF170
:10566000020C08BF4CEBD37C04E04FF0080C01E0C7
:105670004FEAD37C0CEB4C0526FA05F606F007063C
:10568000B6F1040C06D20EEB860CBDE870404CF06F
:10569000010C6047DFE80CF0090B02024FF00041FB
:1056A0004FF00000A1F5002170BD194610460128F9
:1056B00051EB010418BFD4F5001484BF002001F0A1
:1056C000004170BD0808A0F500114FEA3101704794
:1056D00053EA010C17D41CF5801F58BFBCF5801F7E
:1056E00000F106808B4218BF704708BF82427047A6
:1056F00007D713F5801F58BF11F5801F19D48B42AF
:1057000070479B4270471CF5801F08D5BCF5801F71
:10571000F7D5994218BF704708BF904270474FF4C1
:10572000001C1CEB430F38BF1CEB410F01D2994208
:1057300070470FB40CBC03BCFFF7C1BE91EA030F66
:1057400010B581F000413FF5E7AB83F0004300F076
:10575000EFB800002DE9F04101F5801CBCF5001FF9
:10576000C0F2C3804FEA115C21EA0C510CF1FD0C30
:1057700041F480115FEA5C0C0CF5C07C01D3400061
:1057800049413DA4890241EA905187028E0E0A0CDC
:10579000A45D04FB04F602FB06F6C6F14046A4FB3A
:1057A0000662F60D46EA422606FB06F4A4FB012338
:1057B0005242C3F1404338BF5B1EA6FB02420024A5
:1057C000E6FB0324D20B42EA4446A6FB0623A1FBD8
:1057D00002E2A3FB07E4A4184FF0000252F100021A
:1057E000E3FB01426442C2F1404E38BFAEF1010E0C
:1057F000A6FB04234FF00002E6FB0E32A2FB034699
:105800004FF00004B61954F10004E2FB0264A1FB5E
:1058100006E6A4FB07E816EB08064FF0000858F16F
:105820000008E4FB01687642C8F1405838BFA8F18F
:105830000108A2FB06E4A3FB08E52D194FF00004C4
:1058400054F10004E2FB0854A1FB05E6A7FB04E8C1
:1058500018EB06084FF0000656F10006E1FB04863F
:1058600018F1200556F10006A809A8F11B08B10996
:1058700008F03F08B8F10A0F40EA86601CD901EB36
:105880000C51BDE8F08100BFFCF5EEE8E2DDD8D3B5
:10589000CFCBC7C3C0BDB9B6B4B1AEACA9A7A5A3A1
:1058A000A19F9D9B9A9896959392908F8D8C8B89B2
:1058B0008887868584838281A0FB006800FB01F2D3
:1058C00008EB4208B8EB872807D5341858EB0104D9
:1058D000D5D5401C51F10001D1E7341A78EB010411
:1058E000CDD4401E71F10001C9E75FEA4C0C5FEABC
:1058F0009C5C0DD105D34FF0000001F00041BDE8E4
:10590000F081BDE8F04170B5FFF78EFE6DDBFFBEA4
:10591000BDE8F0414FF00000004970470000F87FFB
:1059200010B591EA030F48BF83F000433FF5F4AA96
:10593000841A71EB030C07D212198CF0004C43EB64
:105940000C03001B61EB0C01DFF8A4E14FEA1154DA
:10595000A4EB135C1EEA430F18BF9EEA445F00F0FD
:10596000B08023EA6E03524221EA0451C3EB6E0376
:1059700038BF5B1EDCF1200E25D322FA0CFE10EBA3
:105980000E0043FA0CFE41EB0E01CCF1200E03FA9F
:105990000EFE10EB0E0051F10001CCF1200E29D4C7
:1059A00012FA0EF201EB0451BDE8104058BF7047E7
:1059B000401C1CBFB2F1004F704700280CBF491CAF
:1059C00020F00100704712EB020E43EB030218BFF8
:1059D0004FF0010E4EEA4202ACF1200CDCF11E0E3B
:1059E00054D943FA0CFE10EB0E0051F1FF31CCF10B
:1059F0001E0ED5D50EF1010E12FA0EFE404141EBFE
:105A0000010101EB445C5FEA5C5C10D910EBDE70D5
:105A100001EB045138BFBEF1004FBDE8104018BF84
:105A2000704700280CBF491C20F00100704730D29D
:105A30004FEAD42C11F5001124F400641BD0B1FA04
:105A400081F20B3AA41AA41ED2F12003914030FA3D
:105A500003F31943904001EBCC71002C01EB04518E
:105A6000BDE81040A8BF704701F1C0414FF00000F1
:105A700001F000417047B0FA80F310FA03F100D151
:105A800010BDE41A173C4805C90AE4E701EB0451CC
:105A900010BD491001EB0451BDE810404FEA300041
:105AA00002E04FF0000170474A0008BF0042F8D002
:105AB000B2F5001F28BF704701F000414FF0000011
:105AC00070479EEA445F07D011EA5E0FBDE81040C0
:105AD00004BF002100207047BDE8104070B5FFF7FB
